:100000000C942A000C946C020C946C020C946C02FC
:100010000C946C020C946C020C946C020C946C02A8
:100020000C946C020C946C020C946C020C946C0298
:100030000C946C020C946C020C946C020C946C0288
:100040000C946C020C946C020C946C020C946C0278
:100050000C946C0211241FBECFE5D8E0DEBFCDBFEB
:0C0060000E9444000C943400F894FFCF80
:10006C00526967687420746F206C656674004C6507
:0C007C00667420746F207269676874005D
:10008800CF93DF93CDB7DEB76C970FB6F894DEBF8A
:100098000FBECDBF0E94DC010E940C022CE630E0AE
:1000A80040E08EE0F901DE011196742F0E941902DA
:1000B8002AE730E040E08EE0F901DE011F96742F58
:1000C8000E94190260E070E080E090E00E947901EF
:1000D80060E070E084E090E00E94790160E070E008
:1000E80082E090E00E94BB0161E070E082E090E075
:1000F8000E949A0161E070E087E090E00E949A0116
:1001080061E070E083E090E00E94BB0187EA91E63D
:100118000197F1F700C0000080E090E00E943E02E5
:10012800892B09F445C0CE0101960E94FD0187EA9A
:1001380091E60197F1F700C0000082E090E00E948C
:1001480056029FEB27E289E0915020408040E1F77A
:1001580000C0000082E090E00E94260287E090E064
:100168000E9456029FEB27E289E091502040804090
:10017800E1F700C0000087E090E00E94260283E0DB
:1001880090E00E9461029FEB27E289E091502040B5
:100198008040E1F700C0000083E090E00E94320256
:1001A80082E090E00E944A02892B09F20E940C0228
:1001B80084E090E00E943E02892B09F4A7CFCE018B
:1001C8000F960E94FD0187EA91E60197F1F700C0BA
:1001D800000083E090E00E9461029FEB27E289E043
:1001E800915020408040E1F700C0000083E090E09B
:1001F8000E94320287E090E00E9456029FEB27E2BD
:1002080089E0915020408040E1F700C0000087E07D
:1002180090E00E94260282E090E00E9456029FEB46
:1002280027E289E0915020408040E1F700C00000BB
:1002380082E090E00E94260282E090E00E944A025A
:0A024800892B09F20E940C0261CF1D
:100252009BB39F70282F207F922B9BBBC198C39A80
:1002620035E33A95F1F70000C398EFE3FFE13197E8
:10027200F1F700C000002BB32F70F0E18F9FC00197
:100282001124822B8BBBC39A35E03A95F1F700001B
:10029200C3988FE39FE10197F1F700C00000089532
:1002A2009BB39F70282F207F922B9BBBC19AC39A2E
:1002B20035E33A95F1F70000C398EFE1F3E03197A7
:1002C200F1F700C000002BB32F70F0E18F9FC00147
:1002D2001124822B8BBBC39A35E33A95F1F70000C8
:1002E200C3988FE59DE60197F1F700C000000895DD
:1002F2006115710571F447B321E030E0B90102C024
:10030200660F771F8A95E2F7CB018095842387BB1E
:1003120008956130710561F447B321E030E0B9011D
:1003220002C0660F771F8A95E2F7CB01842B87BB49
:0203320008952C
:100334006115710571F444B321E030E0B90102C0E4
:10034400660F771F8A95E2F7CB018095842384BBDF
:1003540008956130710561F444B321E030E0B901DE
:1003640002C0660F771F8A95E2F7CB01842B84BB0A
:020374000895EA
:100376006115710571F441B321E030E0B90102C0A5
:10038600660F771F8A95E2F7CB018095842381BBA0
:1003960008956130710561F441B321E030E0B9019F
:1003A60002C0660F771F8A95E2F7CB01842B81BBCB
:0203B6000895A8
:1003B8008FEF8ABB8FE087BBC2982FEF89EF90E061
:1003C800215080409040E1F700C0000083E30E9484
:1003D800290182E30E94290188E20E9429018CE018
:1003E8000E94290186E00E94290181E00E942901DA
:0203F800089566
:1003FA00CF93DF93EC018881882331F021960E9404
:0E040A00510189918111FBCFDF91CF910895AF
:1004180081E00E9429018FE39FE10197F1F700C075
:0A042800000080E80E9429010895F9
:10043200992777FD05C005900D920197E1F7089580
:0A04420001900D920197E1F7089573
:10044C0095B321E030E002C0220F331F8A95E2F70A
:08045C002095292325BB08951A
:1004640092B321E030E002C0220F331F8A95E2F7F5
:080474002095292322BB089505
:10047C0026B330E0A90102C0559547958A95E2F75D
:08048C00CA018170992708954F
:1004940020B330E0A90102C0559547958A95E2F74B
:0804A400CA0181709927089537
:1004AC0095B321E030E002C0220F331F8A95E2F7AA
:0604BC00292B25BB089569
:1004C20092B321E030E002C0220F331F8A95E2F797
:0604D200292B22BB089556
:0404D8000C94000080
:00000001FF
